:020000040000FA
:060000004BEF23F012009B
:020006001200E6
:0600080000EF02F01200FF
:02000E000000F0
:0600100000000000C80121
:08001800A4B474EF02F096EFAE
:0400200021F01200B9
:0C00240004000E000000E30000000800D3
:100030000000F80F0000EB00000003000000C046C5
:100040000000E801000012000000CB0F0000FF01DB
:06005000000001000000A9
:0A00560093988198939A819AA69ED0
:10006000A69C9E0EF66E110EF76E0900F5CFFCF100
:100070000A00F5CFFDF10101FC07000EFD5BFCC19C
:10008000A9FFA6800001E9510101FC25E96E0001EC
:10009000EA510101FD21EA6EA8CFEFFF000ED880E2
:1000A000FC55000EFD55E7E312000001EB51745CB6
:1000B00001E184D0C00E74140CE07450E66EE66A60
:1000C000080EE66E78EC12F0E552E552E5523F0E6E
:1000D000741674AA0BD07450E66EE66A090EE66ECA
:1000E00078EC12F0E552E552E5520DD0010167A31C
:1000F0000AD07450E66EE66A090EE66EDBEC12F08A
:10010000E552E552E55274A80BD07450E66EE66AEB
:100110000A0EE66E78EC12F0E552E552E55217D081
:10012000010167A514D07450E66EE66A0A0EE66E09
:10013000DBEC12F0E552E552E552000EE66EE66A9F
:100140000C0EE66EDBEC12F0E552E552E55274A6B9
:100150000BD07450E66EE66A0B0EE66E78EC12F089
:10016000E552E552E5520DD0010167A70AD074505F
:10017000E66EE66A0B0EE66EDBEC12F0E552E55237
:10018000E552070E74140BE07450E66EE66A1C0E1E
:10019000E66E78EC12F0E552E552E5520DD0010121
:1001A00069A90AD07450E66EE66A1C0EE66EDBECB6
:1001B00012F0E552E552E55274CFEBF0FF0E1F5CF2
:1001C0001EE1020E1E5C0FE3060E1E5C0CE2020E28
:1001D0001E5CE66EE66A180EE66E78EC12F0E552EA
:1001E000E552E5520AD01E50E66EE66A190EE66E3A
:1001F00078EC12F0E552E552E5521F6A0ED0FE0E81
:100200001F5C0BE11E50E66EE66A1B0EE66E78EC94
:1002100012F0E552E552E5521F6AA6B238D000014D
:10022000EC51ED110AE19E0EF66E110EF76E09000B
:10023000F5CFECF00A00F5CFEDF0EC07000EED5B2A
:10024000ECC0A9FFA69EA69CA6800001E951000172
:10025000EC25E96E0001EA510001ED21EA6EEF5054
:10026000A85C15E00001E9510001EC25E96E0001F0
:10027000EA510001ED21EA6EEF50A86EA684F29ECD
:10028000550EA76EAA0EA76EA682F28EA694120035
:100290009C0EF66E110EF76E0800F5CFFAF19D0E6A
:1002A000F66E110EF76E0800F5CFFBF10101FA5161
:1002B00006E0FA517F0803E3FB51070815E2FA5103
:1002C000000EF350FB11E66EE66A050EE66E78EC62
:1002D00012F0E552E552E5520101010EFA6FFB51B1
:1002E000070802E2010EFB6F12001F6A800E6F6E9C
:1002F000E00E6E14800801E0FBD70101FB51050DF3
:10030000F3CFF6FFF4CFF7FF6E0EF626460EF72278
:100310000800F504106EFB51050DF3CFF6FFF4CF86
:10032000F7FF6E0EF626460EF722F62A000EF7228B
:100330000800F504400DF3501010706EFB51050DD0
:10034000F3CFF6FFF4CFF7FF6E0EF626460EF72238
:10035000020EF626000EF7220800F504106EFB517F
:10036000050DF3CFF6FFF4CFF7FF6E0EF626460E1F
:10037000F722030EF626000EF7220800F504080DFA
:10038000F35080091010716EFB51050DF3CFF6FF8D
:10039000F4CFF7FF6E0EF626460EF722040EF62671
:1003A000000EF7220800F504726E93949386609E07
:1003B0000F01509F409730972097A36AA46AA56ABF
:1003C000200E736E240E606E200E506F006B016B5A
:1003D000046B056B086B096B0C6B0D6B106B116B71
:1003E000146B156B186B196B1C6B1D6B6F6AE00E31
:1003F0006E1401E0FCD7070EA36E030EA56E12006B
:10040000DACFE4FFE2CFDAFFE9CFE4FFEACFE4FF9F
:100410006FCFE4FFE652A4A005D0A4906F866F844E
:100420006F9204D0A4926F866F946F8200EE60F09A
:100430001D6AEE50625C04E1EF50615C01E108D09E
:100440000A0EE926000EEA221D2A0B0E1D5CF1E1C0
:100450000B0E1D5C01E33DD00F0EEC141F6E08085F
:1004600009E30F0E65141F5C05E0FF0E1F6E1D50A3
:100470001E6E2FD0100EEF1408E0200EEF1405E0D2
:10048000FE0E1F6E1D501E6E24D0EE880F0E6514DA
:1004900020E01F6E66CFEEFF1F4E1BD067CFEEFF32
:1004A0001F4E17D068CFEEFF1F4E13D069CFEEFF5F
:1004B0001F4E0FD06ACFEEFF1F4E0BD06BCFEEFF5B
:1004C0001F4E07D06CCFEEFF1F4E03D06DCFEEFF57
:1004D0001F6A609EE552E5CF6FFFE5CFEAFFE5CFEB
:1004E000E9FFE5CFDAFF1100D8CFE4FFE0CFE4FF6A
:1004F000E46EDACFE4FFE2CFDAFFE9CFE4FFEACF40
:10050000E4FFF6CFE4FFF7CFE4FFF5CFE4FFF3CF4E
:10051000E4FFF4CFE4FFFACFE4FF00EE00F0100EAA
:10052000E80403E3EECFE4FFFBD700EE10F00D0E7E
:10053000E80403E3EECFE4FFFBD7E652A494010105
:100540005851000801E3C0D00F014051080B01E0F1
:10055000BBD0010158070101FE6B080EFE5D01E3EF
:10056000B3D0FE510B0DF3CFE9FFF4CFEAFF000E3D
:10057000E926010EEA22EE52EE52EF50100B01E195
:10058000A1D0FE510B0DF3CFE9FFF4CFEAFF000E2F
:10059000E926010EEA22EE52EE52EF50200B19E04E
:1005A00001015E515F1115E001015C5101015E5DC9
:1005B00001015D5101015F590CE20101FE51E66E3E
:1005C000E66A0D0EE66E78EC12F0E552E552E55261
:1005D0006AD00101FE510B0DF3CFE9FFF4CFEAFF22
:1005E000000EE926010EEA22EFCF42FFFE510B0D6D
:1005F000F3CFE9FFF4CFEAFF000EE926010EEA226D
:10060000010EE926000EEA22EFCF41FFFE510B0D4D
:10061000F3CFE9FFF4CFEAFF000EE926010EEA224C
:10062000EE52EE52EF500F0B0F01456F4551080887
:1006300002E2080E456F4551E66EE66A0101FE5181
:100640000B0DF3CFE9FFF4CFEAFF000EE926010E10
:10065000EA22030EE926000EEA22E9CF20F0EACFD3
:1006600021F020C0E6FF21C0E6FF460EE66E0F0E29
:10067000E66E6DEC22F0226E060EE15E2250010164
:10068000FE510B0DF3CFE9FFF4CFEAFF000EE92690
:10069000010EEA220F01EF50080B02E0458D01D058
:1006A000459D080E406F0101FE510B0DF3CFE9FF90
:1006B000F4CFEAFF000EE926010EEA22EE52EE52D6
:1006C000EF9802D0FE2B49D7E55200EE1CF00D0E3C
:1006D000E80403E3E5CFEDFFFBD700EE0FF0100ECB
:1006E000E80403E3E5CFEDFFFBD7E5CFFAFFE5CF65
:1006F000F4FFE5CFF3FFE5CFF5FFE5CFF7FFE5CF5B
:10070000F6FFE5CFEAFFE5CFE9FFE5CFDAFFE550F9
:10071000E5CFE0FFE5CFD8FF1000D9CFE6FFE1CF6E
:10072000D9FFFD0EDBCFF6FFFE0EDBCFF7FF040E89
:10073000F626000EF7220800F5CF10F0FA0EDB5077
:10074000D880105408E2050E046E056A040E066E89
:10075000050E076EC8D0FD0EDBCFF6FFFE0EDBCF19
:10076000F7FF030EF626000EF7220800F550070BE0
:10077000010807E1010E046E056A066E060E076E9B
:10078000B2D0FD0EDBCFF6FFFE0EDBCFF7FF050E7E
:10079000F626000EF7220900F5CF10F00800F5CF7D
:1007A00011F0105C100E115842E3FD0EDBCFF6FF86
:1007B000FE0EDBCFF7FF030EF626000EF722080031
:1007C000F550100B34E0F29EFD0EDBCFF6FFFE0E6F
:1007D000DBCFF7FF040EF626000EF7220800F550D7
:1007E000E66EE66AFD0EDBCFF6FFFE0EDBCFF7FF0F
:1007F000050EF626000EF7220900F5CF10F00800CE
:10080000F5CF11F0126A10C0E6FF11C0E6FF12C06A
:10081000E6FFFB0EDBCFE6FFFC0EDBCFE6FF98EC3E
:1008200022F0136E070EE15E1350F28E57D0FD0ECC
:10083000DBCFF6FFFE0EDBCFF7FF050EF626000E30
:10084000F7220900F5CF10F00800F5CF11F0105C89
:10085000100E11583BE2FD0EDBCFF6FFFE0EDBCF94
:10086000F7FF030EF626000EF7220800F550100BD6
:100870002DE1F29EFD0EDBCFF6FFFE0EDBCFF7FF84
:10088000040EF626000EF7220800F550E66EE66A22
:10089000FD0EDBCFF6FFFE0EDBCFF7FF050EF626D3
:1008A000000EF7220900F5CFE6FF0800F5CFE6FFBE
:1008B000FB0EDBCFE6FFFC0EDBCFE6FF6DEC22F09C
:1008C000106E060EE15E1050F28E08D0470E046ED8
:1008D000056A040E066E060E076E05D0046A056AE8
:1008E000066A076A00D0E552E7CFD9FF1200D9CFD8
:1008F000E6FFE1CFD9FF040EE126FD0EDBCFF6FFC8
:10090000FE0EDBCFF7FF030EF626000EF7220800DF
:10091000F550070B02080FE0FD0EDBCFF6FFFE0ED1
:10092000DBCFF7FF030EF626000EF7220800F55086
:10093000070B030808E1020E046E056A010E066E3D
:10094000060E076EE8D0FD0EDBCFF6FFFE0EDBCF06
:10095000F7FF040EF626000EF7220800F550F36E9E
:10096000FA0EDB50F35C08E0100E046E056A070E09
:10097000066E060E076ECFD0FB0EDBCFE6FFFC0E39
:10098000DBCFE6FFFD0EDBCFE6FFFE0EDBCFE6FFA3
:1009900043EC1CF0E552E552E552E55204C0DEFF9F
:1009A00005C0DEFF06C0DEFF07C0DDFFDD52DD5201
:1009B000D9CFE9FFDACFEAFFEECF10F0EECF11F09A
:1009C000EECF12F0EFCF13F01050111012101310E1
:1009D0000BE0DECF04F0DECF05F0DECF06F0DDCF9A
:1009E00007F0DD52DD5297D0FD0EDBCFF6FFFE0E95
:1009F000DBCFF7FF050EF626000EF7220900F5CF34
:100A000010F00800F5CF11F0105C100E115831E213
:100A1000FD0EDBCFF6FFFE0EDBCFF7FF030EF62653
:100A2000000EF7220800F550100B23E1F29EFA0E9B
:100A3000DBCFE6FFE66AFB0EDBCFE6FFFC0EDBCF8B
:100A4000E6FFFD0EDBCFF6FFFE0EDBCFF7FF050E58
:100A5000F626000EF7220900F5CFE6FF0800F5CFD5
:100A6000E6FF6DEC22F0106E060EE15E1050F28E85
:100A70004DD0FD0EDBCFF6FFFE0EDBCFF7FF050EF0
:100A8000F626000EF7220900F5CF10F00800F5CF8A
:100A900011F0105C100E115831E3FD0EDBCFF6FFA4
:100AA000FE0EDBCFF7FF030EF626000EF72208003E
:100AB000F550100B23E0F29EFA0EDBCFE6FFE66A5C
:100AC000FB0EDBCFE6FFFC0EDBCFE6FFFD0EDBCF40
:100AD000F6FFFE0EDBCFF7FF050EF626000EF7221F
:100AE0000900F5CFE6FF0800F5CFE6FF97EC20F010
:100AF000106E060EE15E1050F28E08D0470E046EA6
:100B0000056A040E066E060E076E05D0046A056AB5
:100B1000066A076A00D0040EE15C02E2E16AE5526F
:0A0B2000E16EE552E7CFD9FF1200A5
:060B2A000010001204009F
:100B3000100110000201E3000210000204E40003AF
:100B400010000001E8000310010204A801031002D4
:100B50000204AC010310030204B0010310040204F8
:100B6000B4010310050204B8010310060204BC011D
:100B70000310070204C0010310080204C401051099
:100B800000100404100610001004081007100010D4
:100B9000040C10081000120C101009100012051C93
:100BA000100A10001205211014100032042610152E
:100BB000100010022A1016100012012C101610013D
:100BC00010042D101610021004311016100310041A
:100BD00035101610041004391017100010023D10C3
:100BE00018100012013F10181001120440101810C4
:100BF00002120444101810031204481018100412B2
:100C0000044C10291000120150102910011001513C
:100C10001000120012015210001201320453100091
:100C200012023204571000140012015C100014016B
:100C300032045D100014021201611001140012014F
:100C40005C100114013204621001140212016610DA
:100C500002140012015C1002140132046710021425
:100C60000212016B1003140012015C100314013214
:100C7000046C1003140212017010001600120171AE
:100C800010001601120472100016021204761000F1
:100C9000160312047A1000160412047E10001605C2
:100CA00012048210001606120486100016071204A1
:100CB0008A1000160812048E10011600120171101D
:100CC0000116011204921001160212049610011668
:100CD0000312049A1001160412049E100116051244
:100CE00004A2100116061204A6100116071204AA87
:100CF000100116081204AE10021600120171100243
:100D000016011204B2100216021204B610021603E3
:100D10001204BA100216041204BE100216051204C0
:100D2000C2100216061204C6100216071204CA10D8
:100D30000216081204CE10031600120171100316D9
:100D4000011204D2100316021204D6100316031265
:100D500004DA100316041204DE100316051204E26E
:100D6000100316061204E6100316071204EA100315
:100D700016081204EE100018001201F210001801FB
:100D80003204F3100018021001F7100018031002CB
:100D9000F8100018051002FA100118001201F210E4
:100DA0000118013204FC1001180210010011011891
:100DB000031002011101180510020311021800129C
:100DC00001F2100218013204051102180210010983
:100DD0001102180310020A1102180510020C110367
:100DE00018001201F21003180132040E1103180248
:100DF0001001121103180310021311031805100239
:100E00001511001A0012011711001A01120418110D
:100E1000001A0212041C11001A0312042011001AF5
:100E20000412042411001A0512042811001A0612D3
:100E3000042C11001A0712043011001A081204348D
:100E400011011A0012011711011A011204381101BF
:100E50001A0212043C11011A0312044011011A046F
:100E600012044411011A0512044811011A06120451
:100E70004C11011A0712045011011A0812045411DE
:100E8000021A0012011711021A0112045811021A53
:100E90000212045C11021A0312046011021A0412F5
:100EA000046411021A0512046811021A0612046C75
:100EB00011021A0712047011021A081204741103A5
:100EC0001A0012011711031A0112047811031A02F1
:100ED00012047C11031A0312048011031A04120471
:100EE0008411031A0512048811031A0612048C11C6
:100EF000031A0712049011031A0812049411801F98
:100F00000010049811002100020466010121001064
:100F1000019C1102210010019D1103210000025AC1
:100F20000104210002025C010621000204C8010044
:100F300060001201A0110060010201CC01006002FA
:100F40000201CD010060030201CE01006004020134
:100F5000CF010062001201A1110062010501D00160
:100F60000062020501D1010062030501D2010062A5
:100F7000040501D3010164001201A2110164010200
:100F800002D4010164020202D6010164030202D804
:100F9000010164040202DA010164050202DC0101BC
:100FA00064060202DE010164070202E00101640836
:100FB0000202E2011164001201A311116401050291
:0B0FC000E4011164020502E601A90033
:010FCB000025
:040FCC00036A026A48
:100FD000100EE76ED89006360736023603360B50F1
:100FE000025C0C50035805E30B50025E0C50035A90
:080FF000062AE72EF0D71200DB
:030FF800000000F6
:1010000091010F00800000000000000000000000BF
:1010100043414E6F70656E4E6F646500312E303007
:1010200000312E303000800000003200040000004B
:1010300000000000000000000000000000E80304C1
:1010400000000000000000000000000000000000A0
:1010500001000200060000800500000002000200FE
:1010600000FF00030000FF00040000FF0005000077
:10107000FF08080100620802006208030062080419
:1010800000620000000000000000000000000000FE
:101090000000100111641002116400000000000043
:1010A0000000000000000000000000000000000040
:1010B00000004000000000000000000000000000F0
:1010C0000000000000000000000000000000000020
:1010D00000004000000000000000000000000000D0
:1010E0000000000000000000000000000000000000
:1010F00000000580010000FF0000000080020000E9
:10110000FF0000000080030000FF000000008004DA
:101110000000FF00000000080801006008020060F5
:1011200008030060080400600000000000000000E8
:1011300000000000000000001001016410020164C2
:1011400010030164100401640000000000000000AE
:10115000000000000000000010050164100601649A
:101160001007016410080164000000000000000086
:10117000000000000000000040000000000000002F
:10118000000000000000000000000000000000005F
:101190000000000000000000000000000603040042
:0411A0000404080239
:0C11A400D9CFE6FFE1CFD9FF060EE1260F
:1011B0000101EC51020B02E0818801D0819801010C
:1011C000596B48EC01F0DE6ADD6ADECF10F0DDCF4E
:1011D00011F0790E105C000E11580EE2DECFE9FF1F
:1011E000DDCFEAFF600EE926000EEA22EF6ADF2A71
:1011F000010E01E3DB2AE9D7DE6ADD6ADECF10F0FB
:10120000DDCF11F0580E105C000E11580EE2DECF4B
:10121000E9FFDDCFEAFF000EE926010EEA22EF6AC0
:10122000DF2A010E01E3DB2AE9D7080EF66E100E65
:10123000F76E0900F5CF04F00900F5CF05F00900BD
:10124000F5CF06F00800F5CF07F0E80E096E030EA3
:101250000A6E0B6A0C6AF3EC22F004C06EF005C053
:101260006FF0080EF66E100EF76E0900F5CF04F061
:101270000900F5CF05F00900F5CF06F00800F5CF1D
:1012800007F0030E096E0A6A0B6A0C6ABBEC22F0C7
:1012900000C004F001C005F002C006F003C007F072
:1012A000D00E096E070E0A6E0B6A0C6AF3EC22F080
:1012B00004C070F005C071F0080EF66E100EF76EE7
:1012C0000900F5CF04F00900F5CF05F00900F5CFCE
:1012D00006F00800F5CF07F0D00E096E070E0A6E73
:1012E0000B6A0C6AF3EC22F004C072F005C073F0D4
:1012F000040EF66E100EF76E0900000EF514106E57
:101300000900000EF514116E0900000EF514126E9E
:101310000800400EF514136E105011101210131027
:1013200002E0010E01D0000E0001E8B07481E8A0D7
:1013300074910C0EF66E100EF76E0900F5CF04F0E6
:101340000900F5CF05F00900F5CF06F00800F5CF4C
:1013500007F0E80E096E030E0A6E0B6A0C6AF3ECD6
:1013600022F004C05EF105C05FF101015A6B5B6BB6
:101370005C6B5D6B60936081986B040E985D09E215
:101380009851EA6A660FE96E010EEA22EF6A982B1D
:10139000F4D70001E36B0001E86B0101986B080EC4
:1013A000985D10E29851040DF3CFE9FFF4CFEAFF06
:1013B000A80EE926010EEA22EE6AEE6AEE6AEE6AED
:1013C000982BEDD7586B986B010E985D11E29851F0
:1013D000190DF3CFE9FFF4CFEAFF6A0EE926010EFB
:1013E000EA22020EE926000EEA22EF6A982BECD7D9
:1013F000986B040E985D4AE29851090DF3CFF6FF01
:10140000F4CFF7FFF30EF626100EF722040EF626A1
:10141000000EF7220800F550E66E9851EA6A830F35
:10142000E96E010EEA22E552E750EF6E9851E96E3F
:10143000EA6AD890E936EA36870EE926010EEA22F2
:10144000EE6AED6A9851090DF3CFF6FFF4CFF7FF7E
:10145000F30EF626100EF722070EF626000EF722E0
:101460000900F5CF10F00800F5CF11F09851E96EA2
:10147000EA6AD890E936EA368F0EE926010EEA22AA
:1014800010C0EEFF11C0EDFF982BB3D781EC1FF019
:101490000001606B616B6291628362956297040EDA
:1014A000F66E100EF76E0900F5CF10F00800F5CFBC
:1014B00011F0050ED89010361136E804FBE1000E4D
:1014C000000110106B6F11C06CF06D916D936D95F4
:1014D0006D976D8B0101020E986F060E985D01E30A
:1014E0002DD1070EF36E020EF3CFDBFF030EDB6A86
:1014F000080EF36E030EDBCFF4FFF350F45C20E232
:10150000020E985D200DF3CF10F0F4CF11F0720EA3
:101510001026100E1122030EDB50040D1050F32480
:10152000F66E1150F420F76E020EDBCFE7FF0800D5
:10153000F550E726020EE7CFDBFF030EDB2AD8D7F4
:10154000020EDB3ADB46DB9EDB9CDB9ADB500808B5
:101550000FE2080EF36E020EF3CFDBFF985DE66E2E
:10156000E66A030EE66E78EC12F0E552E552E552BB
:10157000020E0101985D050DF3CFF6FFF4CFF7FFE2
:101580005D0EF626100EF7220900000EF514106EFF
:101590000900000EF514116E0900000EF514126E0C
:1015A0000800800EF514136E105011101210131055
:1015B00001E0C2D0020EDB5001E1BED0020E985D08
:1015C000050DF3CFF6FFF4CFF7FF5D0EF626100EF4
:1015D000F7220900F5CF10F00800F5CF11F0050E45
:1015E000D89010361136E804FBE11050000E1112AD
:1015F000010198510B0DF3CFE9FFF4CFEAFF600E24
:10160000E926000EEA2210C0EEFF11C0EDFF020E27
:10161000DB50106E98510B0DF3CFE9FFF4CFEAFFCA
:10162000600EE926000EEA22EE52EE5210500F0B29
:10163000F36EF00EEF14F310EF6E020E985D030AD6
:101640005EE0010A3FE0030A20E0010A01E074D0F5
:101650000101FA51106E116A050ED890103611363C
:10166000E804FBE11050000E1112010198510B0D1E
:10167000F3CFE9FFF4CFEAFF600EE926000EEA227D
:101680001050EE261150ED2257D00101FA51106E84
:10169000116A050ED89010361136E804FBE110509F
:1016A000000E1112010198510B0DF3CFE9FFF4CF99
:1016B000EAFF600EE926000EEA221050EE261150D5
:1016C000ED223AD00101FA51106E116A050ED89040
:1016D00010361136E804FBE11050000E1112010122
:1016E00098510B0DF3CFE9FFF4CFEAFF600EE92626
:1016F000000EEA221050EE261150ED221DD00101FD
:10170000FA51106E116A050ED89010361136E804A1
:10171000FBE11050000E1112010198510B0DF3CF97
:10172000E9FFF4CFEAFF600EE926000EEA2210502E
:10173000EE261150ED2200D0982BCFD6060E986FD2
:10174000070E985D01E3ABD0060E985D090DF3CF4F
:10175000F6FFF4CFF7FF530EF626100EF72209001E
:10176000000EF514106E0900000EF514116E09003C
:10177000000EF514126E0800800EF514136E105052
:1017800011101210131001E088D0060E985D090D9B
:10179000F3CFF6FFF4CFF7FF530EF626100EF72225
:1017A000040EF626000EF7220900F514146E090047
:1017B000000EF514156E0900000EF514166E0800E3
:1017C000800EF514176E145015101610171065E1E1
:1017D000060E985D090DF3CFF6FFF4CFF7FF530E19
:1017E000F626100EF7220900F5CF10F00800F5CF0D
:1017F00011F0050ED89010361136E804FBE11050B8
:10180000000E1112010198510B0DF3CFE9FFF4CF37
:10181000EAFF600EE926000EEA2210C0EEFF11C0BA
:10182000EDFF98510B0DF3CFE9FFF4CFEAFF600E07
:10183000E926000EEA22EE52EE52F00EEF140809ED
:10184000EF6E98510B0DF3CFE9FFF4CFEAFF600E76
:10185000E926000EEA22EE52EE52EF8A060E985D5D
:101860001CE10101FA51106E116A050ED890103674
:101870001136E804FBE11050000E111201019851DD
:101880000B0DF3CFE9FFF4CFEAFF600EE926000E5F
:10189000EA221050EE261150ED22982B51D7070E58
:1018A000986F0B0E985D01E38BD0070E985D040DC9
:1018B000F3CFF6FFF4CFF7FF2D0EF626100EF7222A
:1018C0000900000EF514106E0900000EF514116EDB
:1018D0000900FF0EF514126E0800000EF514136EC9
:1018E000105011101210131040E0070E985D040DF7
:1018F000F3CFF6FFF4CFF7FF2D0EF626100EF722EA
:101900000900F5CF16F00900F5CF17F00900F5CF63
:1019100018F00800F5CF19F018C012F019C013F034
:101920000001146A156A136A146A156A070E131205
:1019300012C010F013C011F0050ED89010361136F9
:10194000E804FBE11050000E1112010198510B0D3B
:10195000F3CFE9FFF4CFEAFF600EE926000EEA229A
:1019600010C0EEFF11C0EDFF0CD098510B0DF3CF5E
:10197000E9FFF4CFEAFF600EE926000EEA22EE6AE4
:10198000ED6A98510B0DF3CFE9FFF4CFEAFF600E3B
:10199000E926000EEA22EE52EE52F00EEF14010993
:1019A000EF6E98510B0DF3CFE9FFF4CFEAFF600E15
:1019B000E926000EEA22EE52EE52EF8A982B71D7FA
:1019C000040EF66E100EF76E0900F5CF10F0080049
:1019D000F5CF11F0050ED89010361136E804FBE172
:1019E000000E01011010006F11C001F1029102936D
:1019F000029502970101FA51126E136A260EF66ED5
:101A0000100EF76E0900F5501224106E0900F55003
:101A10001320116E050ED89010361136E804FBE144
:101A2000000E010110100B6F11C00CF10D910D9300
:101A30000D950D870101020E986F060E985D01E36A
:101A400055D1070EF36E040EF3CFDBFF050EDB6AF4
:101A5000080EF36E050EDBCFF4FFF350F45C20E2CA
:101A6000020E985D200DF3CF10F0F4CF11F0180E98
:101A70001026110E1122050EDB50040D1050F32418
:101A8000F66E1150F420F76E040EDBCFE7FF08006E
:101A9000F550E726040EE7CFDBFF050EDB2AD8D78B
:101AA000040EDB3ADB46DB9EDB9CDB9ADB5008084E
:101AB00010E2080EF36E040EF3CFDBFF020E985D0A
:101AC000E66EE66A030EE66E78EC12F0E552E55239
:101AD000E552020E0101985D090DF3CFF6FFF4CF38
:101AE000F7FFF30EF626100EF7220900000EF5148C
:101AF000106E0900000EF514116E0900000EF514A9
:101B0000126E0800800EF514136E10501110121092
:101B1000131001E0E9D0040EDB5001E1E5D0020E24
:101B2000985D090DF3CFF6FFF4CFF7FFF30EF6261D
:101B3000100EF7220900F5CF10F00800F5CF11F0D4
:101B4000050ED89010361136E804FBE11050000E57
:101B50001112010198510B0DF3CFE9FFF4CFEAFF09
:101B6000000EE926010EEA2210C0EEFF11C0EDFFC3
:101B7000040EDB50106E98510B0DF3CFE9FFF4CF3C
:101B8000EAFF000EE926010EEA22EE52EE52105054
:101B90000F0BF36EF00EEF14F310EF6E020E985D64
:101BA000090DF3CFF6FFF4CFF7FFF30EF626100E74
:101BB000F722040EF626000EF7220800F504106E38
:101BC000116A113404E21050EF08000E11540DE3B5
:101BD00098510B0DF3CFE9FFF4CFEAFF000EE92691
:101BE000010EEA22EE52EE52EF8A020E985D030ACF
:101BF0005EE0010A3FE0030A20E0010A01E074D040
:101C00000101FA51106E116A050ED8901036113686
:101C1000E804FBE11050000E1112010198510B0D68
:101C2000F3CFE9FFF4CFEAFF000EE926010EEA2226
:101C30001050EE261150ED2257D00101FA51106ECE
:101C4000116A050ED89010361136E804FBE11050E9
:101C5000000E1112010198510B0DF3CFE9FFF4CFE3
:101C6000EAFF000EE926010EEA221050EE2611507E
:101C7000ED223AD00101FA51106E116A050ED8908A
:101C800010361136E804FBE11050000E111201016C
:101C900098510B0DF3CFE9FFF4CFEAFF000EE926D0
:101CA000010EEA221050EE261150ED221DD0010146
:101CB000FA51106E116A050ED89010361136E804EC
:101CC000FBE11050000E1112010198510B0DF3CFE2
:101CD000E9FFF4CFEAFF000EE926010EEA221050D8
:101CE000EE261150ED2200D0982BA7D6060E986F45
:101CF000070E985D01E3A2D0060E985D090DF3CFA3
:101D0000F6FFF4CFF7FF530EF626100EF722090068
:101D1000000EF514106E0900000EF514116E090086
:101D2000000EF514126E0800800EF514136E10509C
:101D300011101210131001E07FD0060E985D090DEE
:101D4000F3CFF6FFF4CFF7FF530EF626100EF7226F
:101D5000040EF626000EF7220900F514146E090091
:101D6000000EF514156E0900000EF514166E08002D
:101D7000800EF514176E14501510161017105CE134
:101D8000060E985D090DF3CFF6FFF4CFF7FF530E63
:101D9000F626100EF722040EF626000EF722090092
:101DA000F5CF10F00800F5CF11F0050ED8901036E1
:101DB0001136E804FBE11050000E11120101985198
:101DC0000B0DF3CFE9FFF4CFEAFF000EE926010E79
:101DD000EA2210C0EEFF11C0EDFF98510B0DF3CFBA
:101DE000E9FFF4CFEAFF000EE926010EEA22EE52E7
:101DF000EE52F00EEF140809EF6E060E985D1CE12E
:101E00000101FA51106E116A050ED8901036113684
:101E1000E804FBE11050000E1112010198510B0D66
:101E2000F3CFE9FFF4CFEAFF000EE926010EEA2224
:101E30001050EE261150ED22982B5AD70101FA517D
:101E4000116A000F106E070E1122050ED890103681
:101E50001136E804FBE1000E010110104D6F11C0B6
:101E60004EF14F814F934F954F9775EC01F0060E51
:101E7000E15C02E2E16AE552E16EE552E7CFD9FFAB
:101E80001200D9CFE6FFE1CFD9FF0101EB5101E00C
:101E900001D0F29CFD0EDBCFE9FFFE0EDBCFEAFFA7
:101EA0000B0EEA02F3CFEAFFE902F3CFE9FFF450A9
:101EB000EA26000EE926010EEA22EE52EE52EF501B
:101EC000100B13E0FD0EDBCFE6FFFE0EDBCFE6FFCF
:101ED0000C0EE66E0DDBE552E552E5520101EB51C9
:101EE00001E001D0F28C010EEAD00F014051080B45
:101EF00001E0C6D00101585101E0C2D0FD0EDBCF98
:101F0000E9FFFE0EDBCFEAFF0B0EEA02F3CFEAFF9A
:101F1000E902F3CFE9FFF450EA26000EE926010EAC
:101F2000EA22EE52EE52EF50200B15E05E515F11A7
:101F300012E05C515E5D5D515F590DE2FD0EDBCF3D
:101F4000E6FFFE0EDBCFE6FF0D0EE66ED1DAE552C0
:101F5000E552E55294D0FD0EDBCFE9FFFE0EDBCF5C
:101F6000EAFF0B0EEA02F3CFEAFFE902F3CFE9FF43
:101F7000F450EA26000EE926010EEA22EFCF42FFD6
:101F8000FD0EDBCFE9FFFE0EDBCFEAFF0B0EEA0210
:101F9000F3CFEAFFE902F3CFE9FFF450EA26000E9F
:101FA000E926010EEA22010EE926000EEA22EFCF11
:101FB00041FFFD0EDBCFE9FFFE0EDBCFEAFF0B0E8C
:101FC000EA02F3CFEAFFE902F3CFE9FFF450EA2691
:101FD000000EE926010EEA22EE52EE52EF500F0BF0
:101FE0000F01456F4551080802E2080E456F455143
:101FF000E66EE66AFD0EDBCFE9FFFE0EDBCFEAFF01
:102000000B0EEA02F3CFEAFFE902F3CFE9FFF45047
:10201000EA26000EE926010EEA22030EE926000E4A
:10202000EA22E9CF10F0EACF11F010C0E6FF11C0AC
:10203000E6FF460EE66E0F0EE66E6DEC22F0126EB7
:10204000060EE15E1250FD0EDBCFE9FFFE0EDBCF88
:10205000EAFF0B0EEA02F3CFEAFFE902F3CFE9FF52
:10206000F450EA26000EE926010EEA220F01EF5095
:10207000080B02E0458D01D0459D080E406F18D039
:10208000FD0EDBCFE9FFFE0EDBCFEAFF0B0EEA020F
:10209000F3CFEAFFE902F3CFE9FFF450EA26000E9E
:1020A000E926010EEA22EE52EE52EF880101582B8A
:1020B0000101EB5101E001D0F28C000E00D0E5529D
:1020C000E7CFD9FF1200D9CFE6FFE1CFD9FFFD0E50
:1020D000DBCFE9FFFE0EDBCFEAFF010ED890E93639
:1020E000EA36E806FBE1870EE926010EEA22EE5009
:1020F000ED1002E0020E50D0FD0EDBCFF6FFFE0E1B
:10210000DBCFF7FF090EF702F3CFF7FFF602F3CFAD
:10211000F6FFF450F726F30EF626100EF722050E02
:10212000F626000EF7220900F5CF10F00800F5CFD3
:1021300011F00A0E0B6E0C6A10C006F011C007F009
:10214000E6EC07F006C010F007C011F0FD0EDBCF83
:10215000E9FFFE0EDBCFEAFF010ED890E936EA3642
:10216000E806FBE1870EE926010EEA2210C0EEFF29
:1021700011C0EDFFFD0EDBCF10F0FE0EDBCF11F036
:10218000020E1026000E112210C0E6FF11C0E6FF5D
:1021900078DEE552E55200D0E552E7CFD9FF1200D4
:1021A0000101010EEB6FE82B000EE923EE2B640E0C
:1021B000EE5D02E1EA2BEE6B00016E516F1147E01C
:1021C0007F0E0101595D03E0050E595D40E15C2B76
:1021D000000E5D2300016DA91DD0725101015C5DEF
:1021E0000001735101015D590DE2050E595D0AE1CF
:1021F0005CC1E6FF5DC1E6FF1D0EE66E79D9E552D2
:10220000E552E55201015A2B000E5B235C6B5D6BBE
:1022100000016D9974A11BD00101F42BF52300017D
:102220006E510101F45D00016F510101F5590FE399
:10223000000EE66EE66A25DEE552E55201015A2BF4
:10224000000E5B235C6B5D6B0101F46BF56B050E9F
:102250000101595D14E0996B040E995D10E2020EC4
:1022600099250B0DF3CFE9FFF4CFEAFF600EE926C5
:10227000000EEA22EE52EE52EF98992BEDD784EC45
:102280001FF000016E516F1158E0050E0101595DFC
:1022900054E15C515D113FE1996B040E995D3BE2A5
:1022A000020E99250B0DF3CFE9FFF4CFEAFF000EE4
:1022B000E926010EEA22EE52EE52EF50200B28E002
:1022C0009951EA6A830FE96E010EEA22EF0620E1D6
:1022D0009951090DF3CFF6FFF4CFF7FFF30EF62671
:1022E000100EF722040EF626000EF7220800F55015
:1022F000E66E9951EA6A830FE96E010EEA22E55211
:10230000E750EF6E9951E66EE66ADDDEE552E55282
:102310000101992BC2D75C510001705D01015D5133
:10232000000171590AE25CC1E6FF5DC1E6FF0F0ED4
:10233000E66EDED8E552E552E5520101996B040ED6
:10234000995D73E29951E96EEA6AD890E936EA3606
:10235000870EE926010EEA22EE50ED100DE09951AC
:10236000E96EEA6AD890E936EA36870EE926010E68
:10237000EA22EE06000EEF5A9951090DF3CFF6FF4F
:10238000F4CFF7FFF30EF626100EF722070EF6260F
:10239000000EF7220900F5CF10F00800F5CF11F07C
:1023A000105011103FE09951E96EEA6AD890E93671
:1023B000EA368F0EE926010EEA22EE06000EED5AED
:1023C000EECF12F0EDCF13F0125013102BE1995114
:1023D000090DF3CFF6FFF4CFF7FFF30EF626100E3C
:1023E000F722070EF626000EF7220900F5CF10F0AF
:1023F0000800F5CF11F09951E96EEA6AD890E936F4
:10240000EA368F0EE926010EEA2210C0EEFF11C057
:10241000EDFF050E595D06E19951E66EE66A53DE61
:10242000E552E5520101992B8AD70101EF2B320EBB
:10243000EF5D02E1EC8505D0640EEF5D02E1EC9505
:10244000EF6BF02B000EF123C80EF01901E1F151F2
:1024500002E1EC8709D0900EF01902E1010EF119AA
:1024600003E1EC97F06BF16BF22B000EF323D00E2F
:10247000F21902E1070EF31936E0B00EF21902E18B
:10248000040EF3192EE0E80EF21902E1030EF3191F
:1024900026E0200EF21902E1030EF3191DE0580E9A
:1024A000F21902E1020EF31914E0900EF21902E1A2
:1024B000010EF3190AE0C80EF21901E1F35101E02F
:1024C00015D0EC89EC8BEC8D11D0EC99EC9BEC9D4C
:1024D0000DD0EC8BEC8D0AD0EC9BEC9D07D0EC8DF5
:1024E00005D0EC9D03D0F26BF36B00D0EB6B1200C8
:1024F000D9CFE6FFE1CFD9FF020EE126FE0EDB4089
:10250000E840E8401F0BDF6EFE0EDB50070B106E3D
:10251000010E105204E0E846FE0B1006FCE1E76EE7
:10252000010EE7CFDBFFDF50030804E2DF6ADE5273
:10253000020EDD6E010EDBCFE6FFDF50EA6A660FAA
:10254000E96E010EEA22EF50E552E7142AE1FE0E91
:10255000DB5009E0DF50EA6A660FE96E010EEA22FD
:10256000010EDB50EF120101608160B31AD060836D
:10257000FE0EF76ADB34FE0BF736F66E2E0EF626ED
:10258000460EF7220900F5CF61F10A00F5CF62F19E
:10259000FE0EDBCF63F1FC0EDBCF64F1FD0EDBCF73
:1025A00065F1020EE15C02E2E16AE552E16EE5529C
:1025B000E7CFD9FF1200D9CFE6FFE1CFD9FF020E56
:1025C000E126FE0EDB40E840E8401F0BDF6EFE0E0A
:1025D000DB50070B106E010E105204E0E846FE0BB4
:1025E0001006FCE1E76E010EE7CFDBFFDF500308CA
:1025F0000BE2FE0EDBCFE6FFE66A010EE66E78DF49
:10260000E552E552E55228D0010EDBCFE6FFDF5060
:10261000EA6A660FE96E010EEA22EF50E552E7140E
:102620001BE0010EDB1C106EDF50EA6A660FE96EDC
:10263000010EEA221050EF160101608160B30CD048
:102640006083616B626BFE0EDBCF63F1FC0EDBCF50
:1026500064F1FD0EDBCF65F1020EE15C02E2E16A9E
:10266000E552E16EE552E7CFD9FF1200D9CFE6FF80
:10267000E1CFD9FFFD0EDBCF9AF1FE0EDBCF9BF150
:10268000FC0EDBCF9CF101019F6BA06BC90EF66EB7
:102690000F0EF76E0900F5CFA1F10800F5CFA2F1FA
:1026A000010EA15F000EA25B0101A1519F5DA2512D
:1026B000A05901E37ED09F51A1259D6FA051A22179
:1026C0009E6F010E0F0B05E0D8909E339D33E806F8
:1026D000FBE19DC1F6FF9EC1F7FF070EF702F3CFA6
:1026E000F7FFF602F3CFF6FFF450F7262A0EF62690
:1026F0000B0EF7220900F5CFA3F10A00F5CFA4F1E4
:102700009DC1F6FF9EC1F7FF070EF702F3CFF7FF5B
:10271000F602F3CFF6FFF450F7262A0EF6260B0E3C
:10272000F722020EF626000EF7220800F5CFA5F1DB
:102730000101A3519A1902E1A4519B191AE1A55173
:102740009C5D17E19DC110F09EC111F0070E1102B2
:10275000F3CF11F01002F3CF10F0F45011262A0E2F
:1027600010260B0E112210C0F3FF11C0F4FF7CD015
:102770001FD0A3519A5DA4519B5909E3A3519A1903
:1027800002E1A4519B190EE1A5519C5D0BE29DC194
:10279000A1F19EC1A2F1A151A21103E0A107000E77
:1027A000A25B06D0010E9D259F6F000E9E21A06F9B
:1027B0007BD7A1519F1902E1A251A01952E19FC1FB
:1027C0009DF1A0C19EF19DC1F6FF9EC1F7FF070ECE
:1027D000F702F3CFF7FFF602F3CFF6FFF450F72638
:1027E0002A0EF6260B0EF7220900F5CFA3F10A00F8
:1027F000F5CFA4F19DC1F6FF9EC1F7FF070EF702CA
:10280000F3CFF7FFF602F3CFF6FFF450F7262A0EC8
:10281000F6260B0EF722020EF626000EF72208000F
:10282000F5CFA5F1A3519A1902E1A4519B1919E121
:10283000A5519C5D16E19DC110F09EC111F0070EDF
:102840001102F3CF11F01002F3CF10F0F450112663
:102850002A0E10260B0E112210C0F3FF11C0F4FF38
:1028600003D0F36AF46A00D0E552E7CFD9FF120033
:10287000D9CFE6FFE1CFD9FF0A0EE126F29CE8C1ED
:10288000DEFFE9C1DDFFF28C55EC00F0000162A92A
:1028900033D00001645105E00101FA510001645D8B
:1028A00029E100016351820A17E0030A13E0010ADB
:1028B0000DE0820A07E0030A01E013D00101050ED2
:1028C000596F18D00101040E596F14D001017F0E09
:1028D000596F10D0FF000ED0F29ED2EC08F0F28EAD
:1028E00009D0000EE66EE66A1A0EE66E01DEE552CB
:1028F000E552E55200016299010160A1EED00101AB
:102900006091FE0E0101661503E00001E38102D033
:102910000001E391000E0101661503E00001E3836D
:1029200002D00001E393000E0101661503E00001EF
:10293000E38502D00001E395000E0101661503E076
:102940000001E38702D00001E3970101675103E032
:102950000001E38902D00001E399000E0101661530
:1029600003E00001E38B02D00001E39B0F0E0101A5
:10297000681503E00001E38F02D00001E39F7F0EA2
:102980000101595D05E0050E0101595D01E0A5D089
:10299000010160A3A2D0010101010D51100B3AE128
:1029A0000101F851DE5C106EF951DD58116E2A0EEE
:1029B000F66E100EF76E0900F5CF12F00800F5CF95
:1029C00013F00A0E0B6E0C6A12C006F013C007F06B
:1029D000E6EC07F006C012F007C013F01050125CCE
:1029E0001150135817E261C10EF162C10FF1E3C03B
:1029F00010F163C111F164C112F165C113F166C137
:102A000014F167C115F1010EE66EE66A41EC0FF0B4
:102A1000E552E552DECFF8F1DDCFF9F10101609327
:102A2000080E0001E85D02E20001E82B0001E80564
:102A30000101A66F0101A651000829E20101A605C6
:102A4000040DF3CFE9FFF4CFEAFFA80EE926010E4B
:102A5000EA22EECF10F0EECF11F0EECF12F0EFCF72
:102A600013F00101A651040DF3CFE9FFF4CFEAFF03
:102A7000A80EE926010EEA2210C0EEFF11C0EEFFFB
:102A800012C0EEFF13C0EEFF0101A607D3D761C14C
:102A900010F062C111F0126A136A64C114F065C1CA
:102AA00015F0166A176A100E1F0B07E0D89014363F
:102AB000153616361736E806F9E1105014100101E4
:102AC000A86F115015100101A96F125016100101C5
:102AD000AA6F135017100101AB6F0001E35121E001
:102AE000050E0101595D1DE1EF0E0001E31503E044
:102AF00001017F0E596F0001E3A913D0510EF66E4C
:102B0000100EF76E0800F550020A04E0030A01E017
:102B100005D007D00101040E596F03D001017F0ECB
:102B2000596F7F0E0101595D06E0050E0101595DE7
:102B300002E0D5EF19F000010001A451100B02E1F1
:102B4000B6EF19F0010101014451100B02E0B6EF9C
:102B500019F0A6C046F1A7C047F1A8C048F101018D
:102B6000496B4A6B4B6B4C6B0001A551E00BE8388D
:102B7000E840040A01E1E1D3070A01E131D3010A87
:102B800001E1DAD1020A01E106D1010A01E0D8D35C
:102B9000A8C0E6FFA6C0E6FFA7C0E6FF67DDE552D6
:102BA000E552E552F3CF6AF1F4CF6BF101016A51BE
:102BB0006B1114E10101800E456F0101496B4A6BF5
:102BC000020E4B6F060E4C6F01016C6B060EE66E2B
:102BD000E66A41EC0FF0E552E552C6D36AC1F6FF52
:102BE0006BC1F7FF040EF626000EF7220800F55021
:102BF000140815E20101800E456F0101470E496F6F
:102C00004A6B040E4B6F060E4C6F01016C6B060E87
:102C1000E66EE66A41EC0FF0E552E552A5D36AC1D3
:102C2000F6FF6BC1F7FF030EF626000EF722080031
:102C3000F550070B02080DE06AC1F6FF6BC1F7FF04
:102C4000030EF626000EF7220800F550070B0308C6
:102C500015E10101800E456F0101020E496F4A6BBB
:102C6000010E4B6F060E4C6F01016C6B060EE66E8B
:102C7000E66A41EC0FF0E552E55276D30001A5A3D8
:102C800041D00001A5A10CD0040E106E0001A55189
:102C9000E840E8403F0B030B105C0101A66F03D036
:102CA0000101040EA66FA6C1E6FFA90EE66E000E96
:102CB000E66E6AC1E6FF6BC1E6FF77EC04F0106ECA
:102CC000050EE15E105004C049F105C04AF106C08E
:102CD0004BF107C04CF1010149514A114B114C1104
:102CE00004E00101800E456F03D00101600E456FC5
:102CF00001016C6B060EE66EE66A41EC0FF0E552E0
:102D0000E55248D00001A5A145D06AC1F6FF6BC1CC
:102D1000F7FF040EF626000EF7220800F5CF10F09C
:102D2000116A126A136A0001A95110180CE100011E
:102D3000AA51111808E10001AB51121804E1000179
:102D4000AC51131800E115E00101800E456F01013F
:102D5000100E496F4A6B070E4B6F060E4C6F010148
:102D60006C6B060EE66EE66A41EC0FF0E552E5523A
:102D7000FBD20101816BEAC182F10101020E6C6F8D
:102D80000101600E456F060EE66EE66A41EC0FF03B
:102D9000E552E552E9D201016CB315D00101800E74
:102DA000456F0101010E496F4A6B040E4B6F050E12
:102DB0004C6F01016C6B060EE66EE66A41EC0FF09B
:102DC000E552E552D1D2100E0001A515106E100E7D
:102DD00001016C15105C14E00101800E456F0101CA
:102DE000496B4A6B030E4B6F050E4C6F01016C6B08
:102DF000060EE66EE66A41EC0FF0E552E552B4D2FB
:102E0000070E106E0001A5417F0B070B105C01013E
:102E1000A66F010181510101A625106E6AC1F6FF5E
:102E20006BC1F7FF040EF626000EF7220800F550DE
:102E3000D880105415E20101800E456F0101120E79
:102E4000496F4A6B070E4B6F060E4C6F01016C6B9E
:102E5000060EE66EE66A41EC0FF0E552E55284D2CA
:102E60000101A651E66EE66AA60EE66E000EE66E5B
:102E700001018151116A6D0F106E010E112210C0F7
:102E8000E6FF11C0E6FF6DEC22F0126E060EE15E69
:102E900012500101A65101018127100E01016C158C
:102EA00020090101456F0001A5A12ED081C1E6FFD7
:102EB0006D0EE66E010EE66E6AC1E6FF6BC1E6FFBF
:102EC00077EC04F0106E050EE15E105004C049F17D
:102ED00005C04AF106C04BF107C04CF10101495150
:102EE0004A114B114C110DE00101800E456F01019B
:102EF0006C6B060EE66EE66A41EC0FF0E552E552A9
:102F000033D201016C6B0AD0EAC182F101016CA9D4
:102F100003D001016C9902D001016C890101466B5B
:102F20000101476B0101486B060EE66EE66A41EC53
:102F30000FF0E552E55218D2A8C0E6FFA6C0E6FFA2
:102F4000A7C0E6FF36EC13F0E552E552E552F3CFA9
:102F50006AF1F4CF6BF101016A516B1115E10101C6
:102F6000800E456F0101496B4A6B020E4B6F060ED6
:102F70004C6F01016C6B060EE66EE66A41EC0FF0D9
:102F8000E552E552F1D121D06AC1F6FF6BC1F7FFDE
:102F9000040EF626000EF7220800F550140815E27C
:102FA0000101800E456F0101470E496F4A6B040E07
:102FB0004B6F060E4C6F01016C6B060EE66EE66AF7
:102FC00041EC0FF0E552E552CFD16AC1F6FF6BC17B
:102FD000F7FF030EF626000EF7220800F550070B48
:102FE000010815E10101800E456F0101010E496FD5
:102FF0004A6B010E4B6F060E4C6F01016C6B060E97
:10300000E66EE66A41EC0FF0E552E552ADD16AC1D9
:10301000F6FF6BC1F7FF040EF626000EF72208003C
:10302000F550040876E3040EE66E490EE66E010ED6
:10303000E66E6AC1E6FF6BC1E6FF8DEC03F0106E31
:10304000050EE15E1050020E04C0DBFF030E05C04A
:10305000DBFF040E06C0DBFF050E07C0DBFF020E20
:10306000DBCF10F0030EDBCF11F0040EDBCF12F03C
:10307000050EDBCF13F0105011101210131019E0D1
:103080000101800E456F020EDBCF49F1030EDBCF4D
:103090004AF1040EDBCF4BF1050EDBCF4CF1010101
:1030A0006C6B060EE66EE66A41EC0FF0E552E552F7
:1030B0002FD06AC1F6FF6BC1F7FF030EF626000E94
:1030C000F7220800F550200B08E00101FA51010138
:1030D0004927000E4A234B234C23040E106E6AC16D
:1030E000F6FF6BC1F7FF040EF626000EF72208006C
:1030F000F550105C040DF35043090101456F0101C7
:103100006C6B060EE66EE66A41EC0FF0E552E55296
:1031100066D0140EE66E6D0EE66E010EE66E6AC1A6
:10312000E6FF6BC1E6FF8DEC03F0106E050EE15E6D
:103130001050060E04C0DBFF070E05C0DBFF080EB3
:1031400006C0DBFF090E07C0DBFF060EDBCF10F069
:10315000070EDBCF11F0080EDBCF12F0090EDBCF2C
:1031600013F0105011101210131019E00101800E0D
:10317000456F060EDBCF49F1070EDBCF4AF1080E93
:10318000DBCF4BF1090EDBCF4CF101016C6B060E6E
:10319000E66EE66A41EC0FF0E552E55220D00101FF
:1031A000816BEAC182F10101040E6C6F0101410ED5
:1031B000456F6AC1F6FF6BC1F7FF040EF626000EDD
:1031C000F7220800F5CF49F101014A6B4B6B4C6BBC
:1031D000060EE66EE66A41EC0FF0E552E552C4D009
:1031E00001016CB515D00101800E456F0101010E82
:1031F000496F4A6B040E4B6F050E4C6F01016C6BEF
:10320000060EE66EE66A41EC0FF0E552E552ACD0F0
:10321000100E0001A515106E100E01016C15105C4A
:1032200014E00101800E456F0101496B4A6B030EEA
:103230004B6F050E4C6F01016C6B060EE66EE66A75
:1032400041EC0FF0E552E5528FD06AC1F6FF6BC139
:10325000F7FF040EF626000EF7220800F5500101D4
:10326000D88081550101A76F0101A751070803E22A
:103270000101070EA76F0101A66B0101A751010112
:10328000A65D18E2010181510101A625EA6A6D0FD0
:10329000E96E010EEA22EF50E66E0101A629EA6A04
:1032A000450FE96E010EEA22E552E750EF6E01018B
:1032B000A62BE3D7070E0101A65D0BE20101A629AB
:1032C000EA6A450FE96E010EEA22EF6A0101A62BB8
:1032D000F1D70101A75101018127070E0101D88013
:1032E000A755E824106E100E01016C151010010195
:1032F000456F6AC1F6FF6BC1F7FF040EF626000E9C
:10330000F7220800F5500101815D05E101014581C9
:1033100001016C6B0AD0EAC182F101016CA903D0F2
:1033200001016C9902D001016C89060EE66EE66A15
:1033300041EC0FF0E552E55217D001016C6B14D04F
:103340000101800E456F0101010E496F4A6B040EA9
:103350004B6F050E4C6F01016C6B060EE66EE66A54
:1033600041EC0FF0E552E5520001A49901016C51C6
:103370001BE0010182510101EA5D106E0A0E105C32
:1033800013E30101800E456F0101496B4A6B040E86
:103390004B6F050E4C6F01016C6B060EE66EE66A14
:1033A00041EC0FF0E552E55204D001016C6B0001D5
:1033B000A4990101050E976F7F0E0101595D05E08B
:1033C000050E0101595D01E047D10101A66B040E14
:1033D0000101A65D01E33FD10101A651040DF3CF28
:1033E000F6FFF4CFF7FF2D0EF626100EF722090098
:1033F000F5CF10F00800F5CF11F01050111001E1D9
:1034000027D1070E0101A6250B0DF3CFE9FFF4CF5D
:10341000EAFF600EE926000EEA22EE52EE52EF506D
:10342000100B67E0070E0101A6250B0DF3CFE9FF96
:10343000F4CFEAFF600EE926000EEA22030EE92629
:10344000000EEA22EF50E66E070E0101A6250B0DD5
:10345000F3CFE9FFF4CFEAFF600EE926000EEA227F
:10346000030EE926000EEA22010EE926000EEA22EA
:10347000E552E750EF6E070E0101A6250B0DF3CFC5
:10348000E9FFF4CFEAFF600EE926000EEA22030E00
:10349000E926000EEA22010EE926000EEA22EF508C
:1034A00018E0070E0101A6250B0DF3CFE9FFF4CFBD
:1034B000EAFF600EE926000EEA22030EE926000E5E
:1034C000EA22020EE926000EEA22DECFEEFFDDCF71
:1034D000EDFF070E0101A6250B0DF3CFE9FFF4CF99
:1034E000EAFF600EE926000EEA22EE52EE52EF9855
:1034F00096D0070E0101A6250B0DF3CFE9FFF4CFFF
:10350000EAFF600EE926000EEA22030EE926000E0D
:10351000EA22040EE926000EEA22EF5054E0DECF44
:1035200012F0DDCF13F0070E0101A6250B0DF3CF2E
:10353000E9FFF4CFEAFF600EE926000EEA22030E4F
:10354000E926000EEA22020EE926000EEA22EE50DB
:10355000125C106EEE501358116E0101A651040D4D
:10356000F3CFF6FFF4CFF7FF2D0EF626100EF7225D
:103570000900F5CF14F00800F5CF15F01050145CD9
:10358000115015581FE2000EE66EE66A0E0EE66E4A
:1035900078EC12F0E552E552E552070E0101A6253E
:1035A0000B0DF3CFE9FFF4CFEAFF600EE926000E22
:1035B000EA22030EE926000EEA22010EE926000E99
:1035C000EA22EF6A2CD0070E0101A6250B0DF3CFDE
:1035D000E9FFF4CFEAFF600EE926000EEA22030EAF
:1035E000E926000EEA22010EE926000EEA22EF503B
:1035F00016E0070E0101A6250B0DF3CFE9FFF4CF6E
:10360000EAFF600EE926000EEA22030EE926000E0C
:10361000EA22040EE926000EEA22010EEF6E070EE2
:103620000101A6250B0DF3CFE9FFF4CFEAFF600EF1
:10363000E926000EEA22030EE926000EEA22010E18
:10364000E926000EEA22EF50050802E00101976B1F
:103650000101A62BBCD644D00101A66B040E0101CA
:10366000A65D3CE2070E0101A6250B0DF3CFE9FF95
:10367000F4CFEAFF600EE926000EEA22030EE926E7
:10368000000EEA22010EE926000EEA22EF6A070E7A
:103690000101A6250B0DF3CFE9FFF4CFEAFF600E81
:1036A000E926000EEA22EE52EE52EF98070E0101D3
:1036B000A6250B0DF3CFE9FFF4CFEAFF600EE92654
:1036C000000EEA22030EE926000EEA22040EE92685
:1036D000000EEA22EF6A0101A62BC0D70101976B09
:1036E00097C1EDF13D0EF66E100EF76E0900F5CFA5
:1036F00010F00800F5CF11F01050111016E0010184
:10370000F651DE5C126EF751DD58136E3D0EF66E0B
:10371000100EF76E0900F5CF14F00800F5CF15F084
:103720001450125C1550135803E20101595130E155
:10373000DECFF6F1DDCFF7F159C150F1070EE66E9D
:10374000E66A41EC0FF0E552E5520101595120E1E2
:10375000980EF66E110EF76E0900040EF514106E39
:103760000900000EF514116E0900000EF514126E1A
:103770000800000EF514136E1050111012101310E3
:1037800004E10101050E596F03D001017F0E596F4D
:1037900001015951050A17E07A0A0CE07B0A01E0A1
:1037A0001BD001010101EC51100B02E0818801D016
:1037B000819812D001010101EC51080B02E08188CF
:1037C00001D0819809D001010101EC51010B02E007
:1037D000818801D0819800D0010167A309D001013F
:1037E0000101EC51010B02E0818A01D0819A41D0A4
:1037F000010167AF09D001010101EC51400B02E06A
:10380000818A01D0819A35D0010167AD09D00101CB
:103810000101EC51200B02E0818A01D0819A29D06C
:10382000040E0101671508E1080E0101671504E1A6
:10383000100E0101691509E001010101EC51100BA5
:1038400002E0818A01D0819A14D00001E35109E09D
:1038500001010101EC51080B02E0818A01D0819A3B
:1038600008D001010101EC51020B02E0818A01D074
:10387000819A0A0EE15C02E2E16AE552E16EE552EC
:06388000E7CFD9FF1200A2
:0A388600D9CFE6FFE1CFD9FF030E12
:10389000E126FD0EDBCFF6FFFE0EDBCFF7FF0900C2
:1038A000F5CFDEFF0A00F5CFDDFFD9CFE9FFDACF94
:1038B000EAFF000ED880EE54120EED5411E2D9CF7B
:1038C000E9FFDACFEAFFFF0ED880EE54120EED5476
:1038D00007E3D9CFE9FFDACFEAFF800EEE16ED520B
:1038E000D9CFE9FFDACFEAFF000ED880EE54140EEC
:1038F000ED5410E2D9CFE9FFDACFEAFFFF0ED8800E
:10390000EE541B0EED5406E3D9CFE9FFDACFEAFF00
:10391000EE6AED90000EDFCF06F0010EDBCF07F070
:10392000020E061802E1210E071801E19FD2010ED6
:10393000061802E1210E071801E172D2800E061866
:1039400002E11F0E071801E14CD2065002E1180EE9
:10395000071801E1FFD1065002E1140E071801E13A
:10396000B2D1065002E1120E071801E16FD1160E16
:10397000061802E1100E071801E1B7D0060E06186E
:1039800002E1100E071801E191D0050E061802E1C0
:10399000100E07181DE0030E061802E1100E07189E
:1039A00001E076D2FB0EDBCFE9FFFC0EDBCFEAFFB6
:1039B000EFCF10F00001E851D880105408E2310E2A
:1039C000046E056A090E066E060E076E66D260D298
:1039D000106AF80E116E1268BF0E136EFB0EDBCF6D
:1039E000E9FFFC0EDBCFEAFFEE501016EE50111689
:1039F000EE501216EE501316105011101210131034
:103A000007E0200E046E056A066A080E076E45D2AE
:103A1000040EF66E100EF76E0900000EF514106E0F
:103A20000900000EF514116E0900000EF514126E57
:103A30000800400EF514136E1050111012101310E0
:103A400034E0FB0EDBCFE9FFFC0EDBCFEAFFEECF6D
:103A500014F0EFCF15F0166A176A040EF66E100E0A
:103A6000F76E0900FF0EF514186E0900070EF51425
:103A7000196E0900000EF5141A6E0800000EF514F8
:103A80001B6E1450181809E11550191806E116504C
:103A90001A1803E117501B1800E107E0220E046E0C
:103AA000056A066A080E076EF8D1F2D1FB0EDBCF6D
:103AB000E9FFFC0EDBCFEAFFEE50ED1016E0FB0E47
:103AC000DBCFE9FFFC0EDBCFEAFFEECF10F0EFCF4C
:103AD00011F0B80E105C0B0E115807E2220E046EA6
:103AE000056A066A080E076ED8D1106A116A800E40
:103AF000126E1368FB0EDBCFE9FFFC0EDBCFEAFF93
:103B0000EE501016EE501116EE501216EE5013161F
:103B1000105011101210131007E0200E046E056AE9
:103B2000066A080E076EB9D1020EDB6A040EF36E48
:103B3000020EDBCFF4FFF350F45C01E386D0FB0E02
:103B4000DBCFE9FFFC0EDBCFEAFFEECF10F0EECFCC
:103B500011F0EECF12F0EFCF13F0100ED890133219
:103B6000123211321032E806F9E1020EDB50040D78
:103B7000F3CFF6FFF4CFF7FF2D0EF626100EF72247
:103B80000900F5CF14F00900F5CF15F00900F5CFC5
:103B900016F00800F5CF17F0100ED8901732163235
:103BA00015321432E806F9E11050141809E11150E9
:103BB000151806E11250161803E11350171800E10A
:103BC00041E1FD0EDBCFF6FFFE0EDBCFF7FF020E6D
:103BD000F626000EF7220800F504186E020EDB50E0
:103BE000185C30E0FB0EDBCFE9FFFC0EDBCFEAFF19
:103BF000EE50ED1027E0020EDB50040DF3CFF6FF80
:103C0000F4CFF7FF2D0EF626100EF7220900FF0E57
:103C1000F514196E0900FF0EF5141A6E0900000E56
:103C2000F5141B6E0800000EF5141C6E19501A10C6
:103C30001B101C1007E0220E046E056A066A080EAF
:103C4000076E2BD1020EDB2A71D722D1FD0EDBCFFE
:103C5000F6FFFE0EDBCFF7FF020EF626000EF72270
:103C60000800F55001080EE0FD0EDBCFF6FFFE0E5A
:103C7000DBCFF7FF020EF626000EF7220800F55004
:103C8000020820E1106AF80E116E12687F0E136EA2
:103C9000FB0EDBCFE9FFFC0EDBCFEAFFEE50101688
:103CA000EE501116EE501216EE5013161050111061
:103CB0001210131007E0200E046E056A066A080E43
:103CC000076EEBD0E5D0FD0EDBCFF6FFFE0EDBCFAF
:103CD000F7FF020EF626000EF7220800F550010845
:103CE00038E1106AF80E116E12683F0E136EFB0E6B
:103CF000DBCFE9FFFC0EDBCFEAFFEE501016EE50F3
:103D00001116EE501216EE5013161050111012101C
:103D1000131018E1146A156A166A400E176EFB0E2E
:103D2000DBCFE9FFFC0EDBCFEAFFEE501416EE50BE
:103D30001516EE501616EE501716145015101610D4
:103D4000171007E1200E046E056A066A080E076E5A
:103D5000A4D09ED0FD0EDBCFF6FFFE0EDBCFF7FF2B
:103D6000020EF626000EF7220800F550010838E191
:103D7000106AF80E116E12683F0E136EFB0EDBCF49
:103D8000E9FFFC0EDBCFEAFFEE501016EE501116E5
:103D9000EE501216EE501316105011101210131090
:103DA00018E1146A156A166A400E176EFB0EDBCF17
:103DB000E9FFFC0EDBCFEAFFEE501416EE501516AD
:103DC000EE501616EE501716145015101610171048
:103DD00007E1200E046E056A066A080E076E5DD0C4
:103DE00057D0FB0E106E116812681368DBCFE9FF25
:103DF000FC0EDBCFEAFFEE501016EE501116EE501F
:103E00001216EE501316105011101210131007E076
:103E1000200E046E056A066A080E076E3ED038D082
:103E2000FB0EDBCFE9FFFC0EDBCFEAFFEFCF10F09C
:103E3000010E105C09E2320E046E056A090E066E70
:103E4000060E076E2AD011D0FB0EDBCFE9FFFC0E69
:103E5000DBCFEAFFEF507F0808E2310E046E056AFF
:103E6000090E066E060E076E18D012D0FB0EDBCFC1
:103E7000E9FFFC0EDBCFEAFFEF50070808E2310E46
:103E8000046E056A090E066E060E076E06D000D097
:103E9000046A056A066A076A00D0030EE15C02E262
:0E3EA000E16AE552E16EE552E7CFD9FF12006C
:023EAE00010110
:103EB000D06BD16BD26BD36B0101E46BE56BE66B1E
:103EC000E76B12000101C82B000EC923CA23CB23C4
:103ED0000101CC6BCD6BCE6BCF6B0101D46BD56B7D
:103EE000D66BD76BD86BD96BDA6BDB6BDC6BDD6BAE
:103EF000DE6BDF6BE06BE16BE26BE36B57EF1FF0A8
:103F0000120057EF1FF01200D9CFE6FFE1CFD9FF23
:103F1000E652DF6A050E0101595D01E0FCD0DF2A9F
:103F2000050E0101ED5D1CE1DF2A000178A90BD02F
:103F3000F29E79C0D0F17AC0D1F17BC0D2F17CC0C1
:103F4000D3F17899F28E83A90BD0F29E84C0E4F16C
:103F500085C0E5F186C0E6F187C0E7F18399F28E6E
:103F600001018751881131E1190EE96E010EEA6EE7
:103F7000EE500101CC1909E1EE50CD1906E1EE50E9
:103F8000CE1903E1EE50CF1900E11FE0CCC119F1C9
:103F9000CDC11AF1CEC11BF1CFC11CF1F70EF66EE7
:103FA000100EF76E0800F550106E116AD89011507F
:103FB00004E6FE0E105C000E115807E3000EE66EDC
:103FC000E66A63EC10F0E552E552010189518A116D
:103FD0004FE10101D4510101241904E10101D5513E
:103FE000010125191EE10101D6510101261904E143
:103FF0000101D7510101271914E10101D851010133
:10400000281904E10101D951010129190AE101012D
:10401000DA5101012A1904E10101DB5101012B19D7
:1040200027E0D4C124F1D5C125F1D6C126F1D7C1ED
:1040300027F1D8C128F1D9C129F1DAC12AF1DBC1B0
:104040002BF1000EF66E110EF76E0800F550106E93
:10405000116AD890115004E6FE0E105C000E115843
:1040600007E3010EE66EE66A63EC10F0E552E552F6
:1040700001018B518C114FE10101DC5101012F191C
:1040800004E10101DD51010130191EE10101DE51A0
:104090000101311904E10101DF510101321914E17B
:1040A0000101E0510101331904E10101E151010174
:1040B00034190AE10101E2510101351904E101015C
:1040C000E3510101361927E0DCC12FF1DDC130F1E8
:1040D000DEC131F1DFC132F1E0C133F1E1C134F1D0
:1040E000E2C135F1E3C136F1090EF66E110EF76E3D
:1040F0000800F550106E116AD890115004E6FE0EBB
:10410000105C000E115807E3020EE66EE66A63ECDF
:1041100010F0E552E5520101FF51DF5C01E2C7DE1C
:0E412000DFCFFFF1E552E552E7CFD9FF1200E5
:02412E00D9CFE7
:10413000E6FFE1CFD9FF410EE126F250800B01E00E
:10414000010EE76E400EE7CFDBFFFD0EDB503F0BAD
:104150000001EF6F0001EF51106E116AD950FD0F91
:10416000E96EFF0EDA20EA6E1050EE5E1150ED5A45
:10417000D950F90FE96EFF0EDA20EA6EEE50ED101D
:1041800001E1CAD0400EE66EE66AFD0EDBCF10F00C
:10419000FE0EDBCF11F0126A10C0E6FF11C0E6FF81
:1041A00012C0E6FFD9CFE6FFDACFE6FF98EC22F0A7
:1041B000136E070EE15E1350400E0001D880EF55DC
:1041C0000001EE6FF90EDBCF10F0FA0EDBCF11F02D
:1041D0000001EE51126E136A1250105C1350115808
:1041E00003E2F90EDBCFEEF00001EE51E66EE66A77
:1041F000FB0EDBCFE6FFFC0EDBCFE6FFD9CF12F0E4
:10420000DACF13F00001EF5100011224106E000EFE
:104210001320116E10C0E6FF11C0E6FF6DEC22F016
:10422000146E060EE15E14500001EE51106E116A1C
:10423000D950F90FE96EFF0EDA20EA6E1050EE5EEB
:104240001150ED5A0001EE51106E116AD950FB0F5A
:10425000E96EFF0EDA20EA6E1050EE261150ED22C4
:10426000A6B2FED7FD0EDBCFF6FFFE0EDBCFF7FFCB
:10427000F86AF29E0400A68EA69CA684A688550E17
:10428000A76EAA0EA76EA6820000400EDB5002E0C9
:10429000F28E01D0F29E0001080EEF6F0A000001BD
:1042A000EE6B400E0001EE5D29E2D9CF10F0DACFBF
:1042B00011F00001EE510F011024E96E000E1120E3
:1042C000EA6EEF50F56E0F000001EF0714E1F29E69
:1042D0000400A68EA69CA684550EA76EAA0EA76EF5
:1042E000A6820000400EDB5002E0F28E01D0F29E6A
:1042F0000001080EEF6F0001EE2BD3D7A69400014A
:10430000EF6BD950FD0FE96EFF0EDA20EA6E400E1A
:10431000EE26000EED222CD7410EE15C02E2E16AAE
:0C432000E552E16EE552E7CFD9FF120034
:04432C00D8CFE4FF03
:10433000E0CFE4FFE46EDACFE4FFE2CFDAFFE9CFCB
:10434000E4FFEACFE4FFF6CFE4FFF7CFE4FFF5CFD9
:10435000E4FFF3CFE4FFF4CFE4FFFACFE4FF00EE95
:1043600000F0100EE80403E3EECFE4FFFBD700EE0D
:1043700010F00D0EE80403E3EECFE4FFFBD7E652A6
:104380009EA210D09E92D0EC10F09EA20AD0000EF9
:10439000E66EE66A040EE66E78EC12F0E552E5523F
:1043A000E5520AD0000EE66EE66A020EE66E78EC82
:1043B00012F0E552E552E552E55200EE1CF00D0E0A
:1043C000E80403E3E5CFEDFFFBD700EE0FF0100E9E
:1043D000E80403E3E5CFEDFFFBD7E5CFFAFFE5CF38
:1043E000F4FFE5CFF3FFE5CFF5FFE5CFF7FFE5CF2E
:1043F000F6FFE5CFEAFFE5CFE9FFE5CFDAFFE550CD
:10440000E5CFE0FFE5CFD8FF10002BEC00F062EC29
:104410001FF0D2EC08F07D0ECA6E7C0ECB6ECC6A1B
:104420009E929F929D82D08EF28CF28E040038EC88
:0C44300014F0040083EC1FF0F9D7120018
:04443C00240EF66EE6
:10444000000EF76E000EF86E00010900F550DE6FE9
:104450000900F550DF6F03E1DE6701D03DD00900B0
:10446000F550D96F0900F550DA6F0900F550DB6F90
:1044700009000900F550E96E0900F550EA6E0900DF
:1044800009000900F550DC6F0900F550DD6F0900E7
:104490000900F6CFE0F0F7CFE1F0F8CFE2F0D9C0B5
:1044A000F6FFDAC0F7FFDBC0F8FF0001DC5302E1E2
:1044B000DD5307E00900F550EE6EDC07F8E2DD079A
:1044C000F9D7E0C0F6FFE1C0F7FFE2C0F8FF000156
:0A44D000DE07000EDF5BBFD712000D
:0644DA00D9CFE6FFDACFA6
:1044E000E6FFFA0EE3CFD9FFFB0EE3CFDAFFFC0EB7
:1044F000E3CFE9FFFD0EE3CFEAFFE9CFF3FFEACF19
:10450000F4FFF80EE35003E1F90EE35008E0F80E73
:10451000E30602E2F90EE306DECFEEFFF2D7FF0E6E
:10452000E3CFDAFFE552FF0EE3CFD9FFE5521200E9
:10453000FB0EE3CFF6FFFC0EE3CFF7FFFD0EE3CF5C
:10454000F8FFFE0EE3CFE9FFFF0EE3CFEAFFE9CF6E
:10455000F3FFEACFF4FFF90EE35003E1FA0EE35064
:1045600009E0F90EE30602E2FA0EE3060900F5CFD0
:06457000EEFFF1D712007E
:0A45760004500902F3CF00F0F4CF67
:1045800001F00A02F3500126000EF420026E0450DE
:104590000B02F3500226000EF420036E04500C02AE
:1045A000F350032605500902F3500126F45002226D
:1045B000000E032205500A02F3500226F450032293
:1045C00005500B02F350032606500902F350022651
:1045D000F450032206500A02F35003260750090242
:0645E000F3500326120057
:0A45E600036A026A016A006A200EEF
:1045F000E76ED890043605360636073600360136A3
:10460000023603360950005C0A5001580B5002581C
:104610000C50035809E30950005E0A50015A0B5030
:0E462000025A0C50035A042AE72EE4D7120067
:02462E0000008A
:1046300000611061206100600063000000001081D3
:104640004081208120811081008130810081011012
:104650000210031004100510061007100810108235
:0E4660000082008200820000008100810000C4
:02466E00400109
:1046700008080832010508021401050802080105AE
:1046800008020401050802020105080202010304F0
:0646900002020102030218
:0A4696001CEE00F02CEE00F0F86AB4
:1046A0000F9C1EEC22F003EC00F005EC22F0FBD78F
:0246B0001200F6
:0E46B20000EE00F00D0EEE6AEA62FDD7120077
:1046C00000000000010000000000000000000000E9
:0246D0000000E8
:00000001FF
